:100000000C942A000C9449000C9447000C9447006F
:100010000C9447000C9447000C9447000C94470044
:100020000C9447000C9447000C9447000C94470034
:100030000C9447000C9447000C9447000C94470024
:100040000C9447000C9447000C9447000C94470014
:100050000C94470011241FBECFE5D8E0DEBFCDBF12
:1000600010E0A0E6B0E0E0E7F1E002C005900D92FC
:10007000A236B107D9F710E0A2E6B0E001C01D92A8
:10008000AE36B107E1F70E9499000C94B6000C94CB
:1000900000001F920F920FB60F9211242F936F93AF
:1000A0007F938F939F938091620081508093620031
:1000B00020916000222351F0809163008F5F6AE0FD
:1000C0000E94AA0090936300209362009F918F91F9
:1000D0007F916F912F910F900FBE0F901F901895E9
:1000E0008FE38093640086E0809365008BE58093C6
:1000F00066008FE48093670086E6809368008DE653
:10010000809369008DE780936A0087E080936B009D
:100110008FE780936C008FE680936D000895809147
:100120006300E4E6F0E0E80FF11D808180688BBB9E
:10013000089583B7836083BF81E089BF80916000A9
:100140008093620078948FEF8ABB0E9470000E94B7
:100150008F00FFCF991B79E004C0991F961708F014
:10016000961B881F7A95C9F780950895F894FFCF5C
:020170003D0050
:00000001FF
